:0400000041EF00F0DC
:100008005982D9CF75F0DACF76F0F3CF77F0F4CF05
:1000180078F0F6CF79F0F7CF7AF0F8CF7BF0F5CF1C
:100028007CF0F2B4F2AA05D075EC0AF03FEC16F0B9
:1000380012D09DBA9EAA0FD0ABB402D0ABA207D003
:10004800E1C002F0E2C003F0E8EC19F004D0AECF52
:1000580086F10101876B7CC0F5FF7BC0F8FF7AC091
:10006800F7FF79C0F6FF78C0F4FF77C0F3FF76C0DA
:10007800DAFF75C0D9FF599211008AEF19F0820E84
:1000880000017D6F0F0E7E6F000E806F040E7F6F74
:100098008BEC1BF00009D8A406D0640E0101861968
:1000A8008711D8A493D0040E0001886F730E896F4E
:1000B8007F0E8A6F030E97EC18F0030E0101546F40
:1000C8008A0E536F550EE82EFED7532FFCD7542FA8
:1000D800FAD700D0070E0001886F000E896F7F0ED7
:1000E8008A6F000E97EC18F018D0C1EC1AF07DC09A
:1000F80057F17EC058F157C14FF158C150F163EC28
:1001080010F0010E07D0A7EC0DF0020E03D0FDECA5
:1001180011F0000E01015D6F0BD001015D51000A65
:10012800D8B4E3D7010AD8B4EED7030AD8B4EFD7C6
:10013800000E876F6E0E866F780E00017E6F7E0E42
:100148007F6F2AEC19F05E0E0101246F010E256FF6
:10015800240E266F7E0E276FB0C128F1B1C129F198
:100168006AEC07F05E0E00017E6F010E7F6F2AECCD
:1001780019F05E0E0101246F010E256F060E266F21
:100188007E0E276FACC128F1ADC129F16AEC07F0EA
:100198005E0E00017E6F010E7F6F2AEC19F05E0E75
:1001A8000101246F010E256F5D0E266F7E0E276FED
:1001B800AEC128F1AFC129F16AEC07F05E0E00016B
:1001C8007E6F010E7F6F2AEC19F01200820E00017B
:1001D8007D6F0F0E7E6F000E806F080E7F6F8BECA9
:1001E8001BF00009D8A406D0610E010186198711F9
:1001F800D8A48CD0040E0001886F000E896F100EF1
:100208008A6F030E97EC18F0030E0101546F8A0EE3
:10021800536F550EE82EFED7532FFCD7542FFAD71D
:1002280000D0070E0001886F000E896F7F0E8A6F5D
:10023800000E97EC18F018D0A7EC0DF0020E11D0B4
:10024800FDEC11F0000E0DD0C1EC1AF07DC057F195
:100258007EC058F157C14FF158C150F163EC10F00E
:10026800010E01015D6F0BD001015D51000AD8B488
:10027800E3D7010AD8B4E4D7030AD8B4E5D7000E07
:10028800876F6E0E866F780E00017E6F7E0E7F6F11
:100298002AEC19F05E0E0101246F010E256F240E61
:1002A800266F7E0E276FB0C128F1B1C129F16AEC23
:1002B80007F05E0E00017E6F010E7F6F2AEC19F0C9
:1002C8005E0E0101246F010E256F060E266F7E0E4D
:1002D800276FACC128F1ADC129F16AEC07F05E0EB9
:1002E80000017E6F010E7F6F2AEC19F05E0E01018E
:1002F800246F010E256F5D0E266F7E0E276FAEC12F
:1003080028F1AFC129F16AEC07F058D7820E000135
:100318007D6F0F0E7E6F000E806F010E7F6F8BEC6E
:100328001BF00009D8A406D0770E010186198711A1
:10033800D8A4CCD0000E01013A6F020E396F000E1E
:100348003C6F010E3B6F84EC15F0A8D0640EAC191D
:10035800AD11D8B49AD0AC4BAD2BCD0E336FCC0EBB
:10036800346F3D0E356FACC136F1ADC137F1000EBB
:10037800396F050E386F040EE0EC09F0ACC197F048
:10038800ADC198F0010EFFEC17F0D90E7E6F7C0E10
:100398007F6F2AEC19F079D0640EB019B111D8B476
:1003A80074D0B04BB12BCD0E336FCC0E346F3D0EE5
:1003B800356FB0C136F1B1C137F1000E396F0A0E91
:1003C800386F040EE0EC09F0B0C197F0B1C198F0B5
:1003D800010EFFEC17F02E0E7E6F7D0E7F6F2AEC5C
:1003E80019F053D0640EAE19AF11D8B44ED0AE4B3D
:1003F800AF2B610E246F770E256F040E266F180E33
:10040800276F460E6FEC1AF0FF0E010115251C6FC1
:10041800FF0E16211D6F000E1F6F1A0E1E6F00ECC7
:1004280015F01CC128F11DC129F1000E2B6F010E1A
:100438002A6F9BEC0BF0CD0E336F4C0E346F3E0ED3
:10044800356FAEC136F1AFC137F1000E396F320EDC
:10045800386F040EE0EC09F0AEC197F0AFC198F028
:10046800010EFFEC17F0800E7E6F7D0E7F6F2AEC79
:1004780019F00BD001015D51000AD8B467D7010A01
:10048800D8B48AD7030AD8B4ADD7820E0101536F06
:10049800DD0EE82EFED7532FFCD700D082B0EAD766
:1004A800770E010186198711D8B4E4D7000E3A6F88
:1004B800020E396F000E3C6F000E3B6F84EC15F096
:1004C800000E0101876F6E0E866F1200820E00010A
:1004D8007D6F0F0E7E6F000E806F020E7F6F8BECAC
:1004E8001BF00009D8A406D0780E010186198711DF
:1004F800D8A4C3D0000E01013A6F030E396F000E65
:100508003C6F000E3B6F84EC15F0AED0AC51AD11D2
:10051800D8B4A1D0CD0E336FCC0E346F3D0E356FED
:10052800ACC136F1ADC137F1000E396F050E386F29
:10053800040EE0EC09F0ACC197F0ADC198F0000EE4
:10054800FFEC17F00101AC07D8A0AD07AE0E000113
:100558007E6F7C0E7F6F2AEC19F07DD0B051B111FF
:10056800D8B479D0CD0E336FCC0E346F3D0E356FC5
:10057800B0C136F1B1C137F1000E396F0A0E386FCC
:10058800040EE0EC09F0B0C197F0B1C198F0000E8C
:10059800FFEC17F00101B007D8A0B107040E000165
:1005A8007E6F7D0E7F6F2AEC19F055D0AE51AF11DA
:1005B800D8B451D0CD0E336F4C0E346F3E0E356F1C
:1005C800AEC136F1AFC137F1000E396F320E386F58
:1005D800040EE0EC09F0AEC197F0AFC198F0000E40
:1005E800FFEC17F00101AE07D8A0AF07610E246F2A
:1005F800770E256F040E266F180E276F460E6FECC8
:100608001AF0FF0E010115251C6FFF0E16211D6F34
:10061800000E1F6F1A0E1E6F00EC15F01CC128F19A
:100628001DC129F1000E2B6F010E2A6F9BEC0BF0F8
:10063800580E00017E6F7D0E7F6F2AEC19F00BD0EB
:1006480001015D51000AD8B461D7010AD8B486D730
:10065800030AD8B4ABD7820E0101536FDD0EE82E22
:10066800FED7532FFCD700D082B2EAD7780E01010B
:1006780086198711D8A41AD7E3D7820E00017D6F97
:100688000F0E7E6F000E806F100E7F6F8BEC1BF0CD
:100698000009D8A4CFD0730E010186198711D8A4F8
:1006A8001200C8D0410E00017E6F7E0E7F6F2AECCB
:1006B80019F0000E00019B6F200E9C6F410E9D6F7C
:1006C800CD0E8C6FCC0E8D6F3D0E8E6FB0C185F048
:1006D800B1C186F0CBEC1BF085C089F086C08AF0EA
:1006E80087C08BF022EC0EF089C098F08AC099F090
:1006F8008BC09AF000EC05F098C0BCF099C0BDF032
:100708009AC0BEF0CDEC10F0BCC0CBF0BDC0CCF0B0
:10071800000ECE6F0A0ECD6FA0EC1CF0CBC05BF1C3
:10072800CCC05CF1000E9B6FA00E9C6F400E9D6FBD
:10073800CD0E8C6FCC0E8D6F3D0E8E6FB0C185F0D7
:10074800B1C186F0CBEC1BF085C089F086C08AF079
:1007580087C08BF022EC0EF089C098F08AC099F01F
:100768008BC09AF000EC05F098C0BCF099C0BDF0C1
:100778009AC0BEF0CDEC10F0BCC0CBF0BDC0CCF040
:10078800000ECE6F0A0ECD6FA0EC1CF0CBC059F155
:10079800CCC05AF1010159515B250001DD6F0101FF
:1007A8005A515C210001DE6F000E9B6F480E9C6F52
:1007B800420E9D6FCD0E8C6F4C0E8D6F3E0E8E6F60
:1007C800AEC185F0AFC186F0CBEC1BF085C089F0D7
:1007D80086C08AF087C08BF022EC0EF089C098F0B2
:1007E8008AC099F08BC09AF000EC05F098C0BCF074
:1007F80099C0BDF09AC0BEF0CDEC10F0BCC055F168
:10080800BDC056F155C11CF156C11DF127EC04F0CD
:10081800C1EC1AF07DC057F17EC058F10101585162
:1008280007E1020E575DD8B003D031EC14F048D67A
:1008380089EC0FF082B836D7730E0101861987113B
:10084800D8A43ED62FD79690460E6FEC1AF015C155
:1008580023F116C124F1010123511C5D0001856FAC
:10086800010124511D590001866FCBEC1BF085C096
:1008780025F186C026F187C027F1000E7D6FA00EF6
:100888007E6FC00E7F6F25C180F026C181F027C121
:1008980082F07DEC16F0D8A004D0000EDC6F640E58
:1008A80013D025C17DF026C17EF027C17FF0000E50
:1008B800806FA00E816F400E826F7DEC16F0D8A07D
:1008C80005D0000EDC6F000EDB6F4AD0000EA76F5C
:1008D800200EA86F410EA96F000E9B6FA00E9C6F93
:1008E800400E9D6F000E8C6F800E8D6FBF0E8E6F49
:1008F80025C189F026C18AF027C18BF022EC0EF0C1
:1009080089C098F08AC099F08BC09AF000EC05F085
:1009180098C0A4F099C0A5F09AC0A6F016EC0FF004
:10092800A4C020F1A5C021F1A6C022F1000E8C6F51
:10093800C80E8D6F420E8E6F20C189F021C18AF0DA
:1009480022C18BF022EC0EF089C0BCF08AC0BDF049
:100958008BC0BEF0CDEC10F0BCC0DBF0BDC0DCF04D
:10096800DCBF0AD0DC5104E1650EDB5DD8A004D001
:10097800000EDC6F640E05D0DCAF04D0000EDC6F17
:10098800000EDB6FDBC0CBF0DCC0CCF0000ECE6F0E
:100998000A0ECD6FA0EC1CF0CBC028F1CCC029F119
:1009A80028C11EF1010E01011E171E3B0F015D51EA
:1009B80001011E19EF0B1E190F015D6F28C11EF1F1
:1009C800020E01011E171E3B1E470F015D5101015A
:1009D8001E19DF0B1E190F015D6F28C11EF129C1F9
:1009E8001FF101011F351F331E331F351F331E33FF
:1009F8001E510F015E6F12009AC09EF000019F6B9E
:100A0800A06B99359E3701E39F819E51A36F9DC0CE
:100A18009EF09F6BA06B9C359E3701E39F819E5192
:100A2800A26FA351D8B40AD0A251A35DD8B00DD0FB
:100A3800A351A25D9E6F180E9E6507D09BC098F0CB
:100A48009CC099F09DC09AF01200A251D8B40AD067
:100A5800A351A25DD8B00DD0A251A35D9E6F180E10
:100A68009E6507D098C098F099C099F09AC09AF0FE
:100A78001200060EA16F9ABFA18F9DBFA18D998FFD
:100A8800FF0E9817FF0E9917000E9A179C8FFF0EEE
:100A98009B17FF0E9C17000E9D17A251A35DD8B09F
:100AA8001BD0D8909B379C379D37A207A351A2191A
:100AB800D8B40DD0A107A1C09EF0070E9E17D8B4D8
:100AC80006D0EFD7D8909A3399339833A32BA251F5
:100AD800A319D8B41FD0F6D7A351A25DD8B01AD0A5
:100AE800D890983799379A37A307A351A219D8B441
:100AF8000DD0A107A1C09EF0070E9E17D8B406D04E
:100B0800EFD7D8909D339C339B33A22BA251A319C6
:100B1800D8A4F7D7A1AF0CD0FF0E981BFF0E991BD6
:100B2800FF0E9A1B010E9827000E9923000E9A2398
:100B3800A1AD0CD0FF0E9B1BFF0E9C1BFF0E9D1B37
:100B4800010E9B27000E9C23000E9D23000EA16F13
:100B580098519B2799519C239A519D239DAF0ED064
:100B6800FF0E9B1BFF0E9C1BFF0E9D1B010E9B2760
:100B7800000E9C23000E9D23010EA16F9BC07DF0EB
:100B88009CC07EF09DC07FF0A3C080F0A1C081F022
:100B980054EC12F07DC098F07EC099F07FC09AF0B6
:100BA80012001EC022F0236A246A1D34223601E393
:100BB80023802250276E21C022F0236A246A203421
:100BC800223601E323802250266E2750D8B40AD05B
:100BD8002650275CD8B00DD02750265C226E180E00
:100BE800226407D01FC01CF020C01DF021C01EF0D9
:100BF80012002650D8B40AD02750265CD8B00DD0A1
:100C08002650275C226E180E226407D01CC01CF0E8
:100C18001DC01DF01EC01EF01200060E256E1EBE61
:100C2800258E21BE258C1D8EFF0E1C16FF0E1D164F
:100C3800000E1E16208EFF0E1F16FF0E2016000E29
:100C480021162650275CD8B01BD0D8901F362036E6
:100C58002136260627502618D8B40DD0250625C0DB
:100C680022F0070E2216D8B406D0EFD7D8901E323D
:100C78001D321C32272A26502718D8B41FD0F6D781
:100C88002750265CD8B01AD0D8901C361D361E3690
:100C9800270627502618D8B40DD0250625C022F0DF
:100CA800070E2216D8B406D0EFD7D89021322032BA
:100CB8001F32262A26502718D8A4F7D725AE0CD0DD
:100CC800FF0E1C1AFF0E1D1AFF0E1E1A010E1C26FF
:100CD800000E1D22000E1E2225AC0CD0FF0E1F1A7E
:100CE800FF0E201AFF0E211A010E1F26000E2022C9
:100CF800000E2122000E256E1C501F261D5020229A
:100D08001E50212221AE0ED0FF0E1F1AFF0E201AF0
:100D1800FF0E211A010E1F26000E2022000E21228E
:100D2800010E256E1FC001F020C002F021C003F0A3
:100D380027C004F025C005F0ABEC12F001C01CF090
:100D480002C01DF003C01EF012006B0E7E6F7F0EF6
:100D58007F6F2AEC19F00A0E0001D36FCC0ED46F06
:100D68007F0ED56F050E51EC13F0000E0101396F9F
:100D7800010E386F38C1D3F0BD0E0001D46F7F0E5D
:100D8800D56F030E51EC13F0410E0101366FEE0ED4
:100D9800E82EFED7362FFCD700000101384B392B3F
:100DA80039BFE8D7395104E10A0E385DD8A0E2D737
:100DB800BD0E00017E6F7F0E7F6F2AEC19F0CC0EFE
:100DC80000017E6F7F0E7F6F2AEC19F0000E010183
:100DD8003B6F000E3A6F050E246F010E3A15256F12
:100DE800266B000E286F200E276F020E21EC0CF0E8
:100DF800030E0101376F080E366F770EE82EFED707
:100E0800362FFCD7372FFAD701013A4B3B2B3BBF84
:100E1800E2D73B5104E1080E3A5DD8A0DCD7070EB3
:100E28000001886F280E896F7F0E8A6F000E97EC7D
:100E380018F0000E01013D6F060E3C6F3CC124F115
:100E4800000E266F010E256F000E286F200E276FEB
:100E5800020E21EC0CF00D0E0101366FFB0EE82E90
:100E6800FED7362FFCD700D001013C4B3D2B3DBFB0
:100E7800E5D73D5104E12F0E3C5DD8A0DFD7000E29
:100E88003F6F070E3E6F2E0E246F3EC125F13FC106
:100E980026F1000E286F200E276F020E21EC0CF0B1
:100EA8001A0E0101366FF80EE82EFED7362FFCD742
:100EB800000001013E07D8A03F073FBF12003F5185
:100EC800E2E1020E3E5DD8A01200DDD7280E010136
:100ED8002C6F010E2D6F8FD0250E3219D8B409D082
:100EE80024C1D9FF25C1DAFF32C1DFFF244B252BEE
:100EF80082D0000E2E6F26C1F6FF27C1F7FF264BC2
:100F0800272B0800F5CF32F13251000AD8B47FD030
:100F1800640AD8B403D00D0AD8A4E2D72CC1D9FFEB
:100F28002DC1DAFFDECF30F1DDCF31F1020E2C27F3
:100F3800000E2D2331AF06D0030E2E13306D311F56
:100F4800D8B0312B010E326F3251020D510EF324FD
:100F5800F66E730EF420F76E0900F550305D090047
:100F6800F5503159D8A005D0322B050E3219D8A426
:100F7800EBD72EC1D8F0030E0001D817D8B409D08A
:100F880024C1D9FF25C1DAFF2D0EDF6E0101244BE4
:100F9800252B32C12FF12AD02F51020D510EF324E7
:100FA800F66E730EF420F76E0900F5CF7FF00A0095
:100FB800F5CF80F030C17DF031C17EF045EC1AF0FC
:100FC8007DC084F07EC085F0000E876F0A0E866FA4
:100FD80009EC1BF08451300F0101326F24C1D9FF95
:100FE80025C1DAFF32C1DFFF244B252B01012F0772
:100FF8002F29D8A4D1D726C1F6FF27C1F7FF264B42
:10100800272B0800F5CF32F13251D8A465D724C177
:10101800D9FF25C1DAFFDF6A1200430E486E496A1C
:101028008BD0250E4E18D8B409D03FC0D9FF40C088
:10103800DAFF4EC0DFFF3F4A402A7ED0000E4A6EDC
:1010480041C0F6FF42C0F7FF414A422A0800F5CFE7
:101058004EF04E50000AD8B47BD0640AD8B403D0FE
:101068000D0AD8A4E2D748C0D9FF49C0DAFFDECFBD
:101078004CF0DDCF4DF0020E4826000E49224DAE51
:1010880006D0030E4A124C6C4D1ED8B04D2A010EE4
:101098004E6E4E50020D510EF324F66E730EF42070
:1010A800F76E0900F5504C5C0900F5504D58D8A072
:1010B80005D04E2A050E4E18D8A4EBD74AC047F0E3
:1010C800030E4716D8B408D03FC0D9FF40C0DAFF96
:1010D8002D0EDF6E3F4A402A4EC04BF029D04B50B0
:1010E800020D510EF324F66E730EF420F76E09000C
:1010F800F5CF03F00A00F5CF04F04CC001F04DC065
:1011080002F098EC1AF001C008F002C009F0000ED5
:101118000B6E0A0E0A6E2AEC1BF00850300F4E6E4A
:101128003FC0D9FF40C0DAFF4EC0DFFF3F4A402A28
:101138004B064B28D8A4D3D741C0F6FF42C0F7FFCF
:10114800414A422A0800F5CF4EF04E50D8A469D73C
:101158003FC0D9FF40C0DAFFDF6A1200C00E0001AD
:10116800A76F7F0EA86F440EA96F0AC185F00BC147
:1011780086F0CBEC1BF085C0A4F086C0A5F087C034
:10118800A6F016EC0FF0A4C089F0A5C08AF0A6C09E
:101198008BF0000E8C6FA00E8D6F400E8E6F22ECC0
:1011A8000EF089C00CF18AC00DF18BC00EF10CC194
:1011B800A7F00DC1A8F00EC1A9F0980EA46FB70E44
:1011C800A56F460EA66F16EC0FF0A4C0B6F0A5C02A
:1011D800B7F0A6C0B8F0E00EB36F920EB46F450E2C
:1011E800B56F4BEC1BF0B3C00FF1B4C010F1B5C034
:1011F80011F12C0EA76FC20EA86F3B0EA96F0FC17D
:10120800A4F010C1A5F011C1A6F016EC0FF0A4C00F
:10121800B9F0A5C0BAF0A6C0BBF014EC1DF0B9C077
:1012280005F1BAC006F1BBC007F14BEC09F005C1E6
:1012380012F106C113F107C114F19A0E00019B6F58
:10124800880E9C6FC30E9D6F12C1A7F013C1A8F042
:1012580014C1A9F0200EA46F7D0EA56F450EA66FD0
:1012680016EC0FF0A4C098F0A5C099F0A6C09AF0AB
:1012780000EC05F098C0BCF099C0BDF09AC0BEF073
:10128800CDEC10F0BCC00AF1BDC00BF11200010199
:1012980007AF0DD0000E0001DA6F210ED96F000ED6
:1012A8000101056F000E066F000E076F1200055151
:1012B80006110711D8A40DD0000E0001DA6F220E16
:1012C800D96F000E0101056F000E066F000E076F43
:1012D8001200000E00018C6F000E8D6F400E8E6F95
:1012E800080E806F010E816F05C17DF006C17EF08A
:1012F80007C17FF078EC14F07DC089F07EC08AF0D9
:101308007FC08BF022EC0EF089C098F08AC099F06B
:101318008BC09AF0000E9B6F800E9C6FBF0E9D6F66
:1013280000EC05F098C005F199C006F19AC007F1E4
:1013380001010807D8A0090705C1D1F006C1D2F0FC
:1013480007C1D3F0560E0001D46F7C0ED56F000E86
:10135800D76F080ED66FF7EC0FF0D1C005F1D2C0E9
:1013680006F1D3C007F1720E8C6F310E8D6F3F0EF0
:101378008E6F08C185F009C186F0CBEC1BF085C0E3
:1013880089F086C08AF087C08BF022EC0EF089C005
:1013980098F08AC099F08BC09AF005C19BF006C1FD
:1013A8009CF007C19DF000EC05F098C005F199C0CC
:1013B80006F19AC007F112004E6F3A0E0101246F30
:1013C800010E256FD90E266F7F0E276F38C185F065
:1013D80039C186F0CBEC1BF085C09BF086C09CF031
:1013E80087C09DF033C18CF034C18DF035C18EF0CB
:1013F80036C185F037C186F0CBEC1BF085C089F08B
:1014080086C08AF087C08BF022EC0EF089C098F075
:101418008AC099F08BC09AF000EC05F098C0BCF037
:1014280099C0BDF09AC0BEF0CDEC10F0BCC01CF164
:10143800BDC01DF1000E01011F6F0A0E1E6F00ECEA
:1014480015F01CC128F11DC129F138C185F039C139
:1014580086F0CBEC1BF085C09BF086C09CF087C063
:101468009DF033C18CF034C18DF035C18EF036C19A
:1014780085F037C186F0CBEC1BF085C089F086C0BB
:101488008AF087C08BF022EC0EF089C098F08AC0F1
:1014980099F08BC09AF000EC05F098C0BCF099C0A8
:1014A800BDF09AC0BEF0CDEC10F0BCC0CBF0BDC012
:1014B800CCF0000ECE6F0A0ECD6FF0EC16F0CBC05C
:1014C8002AF1CCC02BF16AEC07F00B0E0001D36FA8
:1014D8003A0ED46F010ED56F01014E5151EC13F045
:1014E8001200380ED66E500ED76EF2940A0E000116
:1014F800DD19DE11D8A404D0D59E000E806E6CD004
:10150800DD5101015B5D5C51800A566E0001DE51C0
:10151800800A5658D8A008D07D0E026E7F0E036E42
:10152800E8EC19F0020E07D0590E026E7F0E036E1A
:10153800E8EC19F0010E806EDDC037F0DEC038F03F
:10154800000E3A6E0A0E396E42EC15F037C03FF0C5
:1015580038C040F0000EB9EC19F00001DD07D8A042
:10156800DE07DD51DE11D8B437D0DDC037F0DEC07C
:1015780038F0000E3A6E0A0E396E28EC17F0090E94
:1015880037183810D8A428D09A0E026E7F0E036E32
:10159800E8EC19F0DDC037F0DEC038F0000E3A6E26
:1015A8000A0E396E42EC15F037C057F038C058F0C3
:1015B800000E4F6E800E506E3F0E516E57C052F0A7
:1015C80058C053F0000E556E000E546E000E0AEC13
:1015D8000BF00001DF4BE02B2E0E3F6EDFC037F023
:1015E800E0C038F0000E3A6E060E396E28EC17F09F
:1015F800020E3724406E000E3820416E000E436EF6
:10160800200E426E020EA6EC0CF012000001746F60
:10161800600E3F6E406AD90E416E7F0E426E54C016
:1016280009F055C00AF021EC1CF009C01FF00AC0EF
:1016380020F00BC021F04FC010F050C011F051C085
:1016480012F052C009F053C00AF021EC1CF009C096
:101658000DF00AC00EF00BC00FF09CEC0EF00DC0A0
:101668001CF00EC01DF00FC01EF0D5EC05F01CC01C
:1016780028F01DC029F01EC02AF037EC11F028C050
:1016880037F029C038F0000E3A6E0A0E396E42EC77
:1016980015F037C043F038C044F054C009F055C0C5
:1016A8000AF021EC1CF009C01FF00AC020F00BC0A2
:1016B80021F04FC010F050C011F051C012F052C0CC
:1016C80009F053C00AF021EC1CF009C00DF00AC063
:1016D8000EF00BC00FF09CEC0EF00DC01CF00EC00D
:1016E8001DF00FC01EF0D5EC05F01CC028F01DC081
:1016F80029F01EC02AF037EC11F028C037F029C0B5
:1017080038F0000E3A6E0A0E396E28EC17F037C022
:1017180045F038C046F011EC08F00B0E156E600E5F
:10172800166E176A00017451E9EC13F0120021D00B
:10173800000E346F010E336F000E366F5C0E17D03B
:10174800000E346F030E336F000E366F000E0FD08D
:10175800000E346F030E336F000E366F730E07D012
:10176800000E346F010E336F000E366F300E356F7A
:1017780016D02AC12CF12BC12DF12D51000AD8A465
:1017880012002C51010AD8B4D3D7030AD8B4D8D739
:10179800010AD8B4DDD7070AD8A41200E1D7000E91
:1017A800376F46D0000E386F3ED037512703F3CF3E
:1017B8002CF1F4CF2DF126512703F3CFCBF0F4CF42
:1017C800CCF028C1CDF029C1CEF0A0EC1CF0CB5153
:1017D800010124252E6F0001CC51010125212F6F15
:1017E8002C512E25306F2D512F21316F3851302734
:1017F800000E3123020E3027000E312330C1F6FFD0
:1018080031C1F7FF0800F550FF0A326F385135250E
:101818000001826F32C183F001013751332565EC35
:1018280018F00101382B2751385DD8A0BED7372BC7
:101838002651375DD8B01200B5D72B6F25C1CBF034
:1018480026C1CCF027C1CDF028C1CEF0A0EC1CF009
:10185800CBC02CF1CCC02DF12CC1CBF02DC1CCF0DC
:1018680027C1CDF028C1CEF0A0EC1CF0CBC01CF1F4
:10187800CCC01DF1000E01011F6F080E1E6F00EC99
:1018880015F01CC130F11DC131F10CD0360E3025D8
:101898002E6F7C0E04D0610E30252E6F730E312111
:1018A8002F6F10D027C129F128C12AF12A51000A27
:1018B800D8A412002951080AD8B4E8D7280AD8A40D
:1018C8001200E9D7000E336F000E326F26D0000EDB
:1018D800356F000E346F15D0245134250001826F06
:1018E8002EC1F6FF2FC1F7FF0800F5CF83F00101E5
:1018F8002B51322565EC18F001012E4B2F2B344B60
:10190800352B2751345D3551800A296F2851800ABB
:101918002959D8A0E1D7324B332B27C11CF128C154
:101928001DF1000E1F6F080E1E6F00EC15F01C5104
:10193800325D3351800A296F1D51800A2959D8B068
:101948001200C5D7486E40C001F041C002F042C045
:1019580003F043C004F001EC1DF001C046F002C0E2
:1019680047F046C001F047C002F042C003F043C050
:1019780004F001EC1DF001C037F002C038F0000E91
:101988003A6E080E396E42EC15F037C04BF038C08D
:101998004CF00CD0360E4B24496E7C0E04D0610EF0
:1019A8004B24496E730E4C204A6E10D042C044F04E
:1019B80043C045F04550000AD8A412004450080A14
:1019C800D8B4E8D7280AD8A41200E9D7000E4E6E7A
:1019D800000E4D6E23D0000E506E000E4F6E12D0CA
:1019E8003F504F24066E49C0F6FF4AC0F7FF080073
:1019F800F5CF07F048504D2417EC1AF0494A4A2A07
:101A08004F4A502A42504F5C5050800A446E43500F
:101A1800800A4458D8A0E4D74D4A4E2A42C037F02D
:101A280043C038F0000E3A6E080E396E42EC15F0DD
:101A380037504D5C4E50800A446E3850800A4458E6
:101A4800D8B01200C8D721D0000E1C6E010E1B6E34
:101A5800000E1E6E5C0E17D0000E1C6E030E1B6E61
:101A6800000E1E6E000E0FD0000E1C6E030E1B6EB5
:101A7800000E1E6E730E07D0000E1C6E010E1B6E3C
:101A8800000E1E6E300E1D6E16D012C014F013C05C
:101A980015F01550000AD8A412001450010AD8B441
:101AA800D3D7030AD8B4D8D7010AD8B4DDD7070AE0
:101AB800D8A41200E1D7000E1F6E40D0000E206E91
:101AC80038D01F500F02F3CF14F0F4CF15F00E509A
:101AD8000F02F3CF01F0F4CF02F010C003F011C0F1
:101AE80004F001EC1DF001500C24166E02500D207C
:101AF800176E14501624186E15501720196E2050A2
:101B08001826000E1922020E1826000E192218C0D7
:101B1800F6FF19C0F7FF0800F550FF0A1A6E2050AB
:101B28001D24066E1AC007F01F501B2417EC1AF06C
:101B3800202A0F50205CD8A0C4D71F2A0E501F5C43
:101B4800D8B01200BBD7460E6FEC1AF015C14FF192
:101B580016C150F1E80E7E6F7D0E7F6F2AEC19F0EA
:101B6800030E0001D36F1F0ED46F7F0ED56F070EC3
:101B780051EC13F0EA0E0101076F7F0E086FEE0EAD
:101B8800096F7F0E0A6F9EEC13F0000E01013A6F89
:101B9800020E396F000E3C6F000E3B6F84EC15F09F
:101BA800010E0001D36F1F0ED46F7F0ED56F000E8C
:101BB80051EC13F02E0E0101246F000E266F020E59
:101BC800256F000E286F200E276F020E21EC0CF0F7
:101BD800610E246F770E256F040E266F180E276F7F
:101BE800FF0E4F251C6FFF0E50211D6F000E1F6F3B
:101BF8001A0E1E6F00EC15F01CC128F11DC129F149
:101C0800000E2B6F010E2A6F9BEC0BF0CD0E336F7D
:101C18004C0E346F3E0E356FAEC136F1AFC137F1A1
:101C2800000E396F320E386F040EE0EC09F0AEC1C9
:101C380024F1AFC125F160EC17F012008BC08FF0D2
:101C4800906B916B8A358F3701E390818F51926F3A
:101C58009251D8A407D0000E896F000E8A6F000E2B
:101C68008B6F12008EC08FF0906B916B8D358F3714
:101C780001E390818F51976F9751D8A407D0000E38
:101C8800896F000E8A6F000E8B6F120097517B0FC1
:101C980092278BC097F08E51971B800E97178A8FCB
:101CA8008D8FFF0E8C17FF0E8D17000E8E17000EEE
:101CB800936F000E946F000E956F070E966F89A1B3
:101CC80006D08C5193278D5194238E519523D8900B
:101CD8008B338A338933D8908C378D378E37962F4C
:101CE800EED7090E966F89A106D08C5193278D5196
:101CF80094238E519523D8908B338A338933D89087
:101D0800953394339333962FEED793C07DF094C0D8
:101D18007EF095C07FF092C080F097C081F054ECBF
:101D280012F07DC089F07EC08AF07FC08BF012006F
:101D38000FC013F0146A156A0E34133601E31480C9
:101D48001350166E1650D8A407D0000E0D6E000E54
:101D58000E6E000E0F6E120012C013F0146A156A90
:101D68001134133601E3148013501B6E1B50D8A492
:101D780007D0000E0D6E000E0E6E000E0F6E1200D4
:101D88001B507B0F16260FC01BF012501B1A800E1B
:101D98001B160E8E118EFF0E1016FF0E1116000E5A
:101DA8001216000E176E000E186E000E196E070E32
:101DB8001A6E0DA006D01050172611501822125076
:101DC8001922D8900F320E320D32D89010361136B3
:101DD80012361A2EEED7090E1A6E0DA006D0105024
:101DE80017261150182212501922D8900F320E328D
:101DF8000D32D8901932183217321A2EEED717C072
:101E080001F018C002F019C003F016C004F01BC09E
:101E180005F0ABEC12F001C00DF002C00EF003C0EB
:101E28000FF01200A6C0AAF0AB6BAC6BA535AA37B1
:101E380001E3AB81AA51B16FB151D8A407D0000E0C
:101E4800A46F000EA56F000EA66F1200A9C0AAF01D
:101E5800AB6BAC6BA835AA3701E3AB81AA51B26F63
:101E6800B251D8A407D0000EA46F000EA56F000EC3
:101E7800A66F1200000EAE6F000EAF6F000EB06FAF
:101E8800B251890FB15FA6C0B2F0A951B21B800E42
:101E9800B217A58FFF0EA417FF0EA517000EA617E1
:101EA800A88FFF0EA717FF0EA817000EA917180E68
:101EB800AD6FD890AE37AF37B037A751A45DA851F2
:101EC800A559A951A659D8A007D0A751A45FA851D0
:101ED800A55BA951A65BAE81D890A437A537A637D4
:101EE800AD2FE7D7AEC07DF0AFC07EF0B0C07FF0B9
:101EF800B1C080F0B2C081F054EC12F07DC0A4F003
:101F08007EC0A5F07FC0A6F01200BCEC14F0000E55
:101F18000101526F060E516F51C124F1000E266F58
:101F2800010E256F000E286F200E276F020E21EC80
:101F38000CF0514B522B52BFEFD7525104E12F0EE8
:101F4800515DD8A0E9D7E70E076F7F0E086FE50E41
:101F5800096F7F0E0A6F9EEC13F0DDC01CF1DEC026
:101F68001DF1000E01011F6F0A0E1E6F00EC15F027
:101F78001CC124F11DC125F160EC17F0060ED36FCA
:101F88009E0ED46F7F0ED56F070E51EC13F0D58ED1
:101F9800DDC01CF1DEC01DF1000E01011F6F0A0E2D
:101FA8001E6F00EC15F01CC14FF11DC150F1000E61
:101FB800336F800E346F3F0E356F4FC136F150C10D
:101FC80037F1000E396F000E386F000EE0EC09F0A3
:101FD800D5BEFED702EC13F0A0EC11F0A9EC06F088
:101FE8006BEC1BF01200D6C0CBF0D7C0CCF0000EC3
:101FF800CE6F030ECD6FA0EC1CF0CB51D4250101A0
:10200800006F0001CC51D5210101016F00C1F6FF1D
:1020180001C1F7FF0900F5CF02F10900F5CF03F17F
:102028000A00F5CF04F13FD002C18CF003C18DF056
:1020380004C18EF0D1C089F0D2C08AF0D3C08BF031
:1020480022EC0EF089C098F08AC099F08BC09AF003
:10205800000ECE6F030ECD6FD607D8A0D707D6C017
:10206800CBF0D7C0CCF0A0EC1CF0CB51D4250101AB
:10207800006F0001CC51D5210101016F00C1F6FFAD
:1020880001C1F7FF0900F5CF9BF00900F5CF9CF0DF
:102098000A00F5CF9DF000EC05F098C002F199C058
:1020A80003F19AC004F10001D651D711D8A4BCD7C6
:1020B80002C1D1F003C1D2F004C1D3F01200A80EBE
:1020C8007E6F7D0E7F6F2AEC19F0030E0001D36F2F
:1020D800F30ED46F7E0ED56F070E51EC13F0F20E8F
:1020E8000101076F7F0E086FF60E096F7F0E0A6FEA
:1020F8009EEC13F0000E01013A6F020E396F000ECC
:102108003C6F000E3B6F84EC15F0010E0001D36F9D
:10211800AC0ED46F7E0ED56F000E51EC13F02E0E60
:102128000101246F000E266F020E256F000E286F26
:10213800200E276F020E21EC0CF0500E246F7A0E41
:10214800256F030E266F180E276FFF0E4F25286F79
:10215800FF0E5021296F000E2B6F010E2A6F9BEC8A
:102168000BF0CD0E336FCC0E346F3D0E356FB0C112
:1021780036F1B1C137F1000E396F0A0E386F040E0F
:10218800E0EC09F0B0C124F1B1C125F160EC17F021
:102198001200BEC0C0F0C16BC26BBD35C03701E3D1
:1021A800C181C051CA6FCA51D8A409D0000EBC6FF2
:1021B800000EBD6F000EBE6F000EBF6F1200170E2F
:1021C800C06FBCC0C1F0BDC0C2F0BEC0C3F0C02962
:1021D800C46F04D0D890C333C233C133C42FFAD7E5
:1021E8000001C151C56FBD8FFF0EBC17FF0EBD1793
:1021F800000EBE17BC51C66FBD51C76FBE51C86F28
:10220800C96B8E0ECA5FCAAF0DD0CA51800A8F0F34
:10221800D8A0CCD7D890C933C833C733C633CA3F40
:10222800F9D70DD0170ECA6507D0C0D7D890C637D2
:10223800C737C837C937CA07CA51D8A4F7D7C5514D
:10224800D8B408D0C91FC81FC71FC66D000EC72342
:10225800C823C923C6C0BCF0C7C0BDF0C8C0BEF003
:10226800C9C0BFF012002AC02CF02D6A2E6A29348A
:102278002C3601E32D802C50366E3650D8A409D068
:10228800000E286E000E296E000E2A6E000E2B6EB0
:102298001200170E2C6E28C02DF029C02EF02AC06F
:1022A8002FF02C28306E04D0D8902F322E322D32B9
:1022B800302EFAD72D50316E298EFF0E2816FF0EBC
:1022C8002916000E2A162850326E2950336E2A50CD
:1022D800346E356A8E0E365E36AE0DD03650800AB4
:1022E8008F0FD8A0CDD7D89035323432333232322E
:1022F800363EF9D70DD0170E366407D0C1D7D8901F
:10230800323633363436353636063650D8A4F7D713
:102318003150D8B408D0351E341E331E326C000E2E
:1023280033223422352232C028F033C029F034C099
:102338002AF035C02BF01200330E00017E6F7F0E9D
:102348007F6F2AEC19F0000E0001986F000E976F4E
:10235800000E9A6F000E996F99C082F097C093F0A3
:1023680098C094F0070ED89093379437E82EFBD78F
:102378005D0E9325956F6D0E9421966F9951952753
:102388009A51962395C0F6FF96C0F7FF0800F5CF3F
:1023980083F0975165EC18F00001994B9A2B9ABF7E
:1023A800DBD79A5104E1800E995DD8A0D5D7974B19
:1023B800982B98BFCDD7985104E1080E975DD8A007
:1023C800C7D7060E0001946F130E936FAD0EE82E5B
:1023D800FED7932FFCD7942FFAD700D0070E000111
:1023E800886F000E896F7F0E8A6F000E97EC18F0C9
:1023F8001200C80E00017E6F7D0E7F6F2AEC19F067
:10240800030E0001D36FDC0ED46F7E0ED56F070E5E
:1024180051EC13F0FB0E0101076F7F0E086FFA0EE7
:10242800096F7F0E0A6F9EEC13F0000E01013A6FE0
:10243800020E396F000E3C6F000E3B6F84EC15F0F6
:10244800010E0001D36F090ED46F7F0ED56F000EF9
:1024580051EC13F02E0E0101246F000E266F020EB0
:10246800256F000E286F200E276F020E21EC0CF04E
:10247800CD0E336FCC0E346F3D0E356FACC136F1D7
:10248800ADC137F1000E396F050E386F040EE0EC60
:1024980009F0ACC124F1ADC125F160EC17F01200D0
:1024A8008051D8B405D07D517E117F11D8A40CD0AD
:1024B800000E7D6F000E7E6F000E7F6F1200802B66
:1024C800D8907F337E337D33000E7D15826F000EEA
:1024D8007E15836FFE0E7F15846F825183118411E0
:1024E800D8B40CD0ECD7802B010E7D27000E7E23AC
:1024F800000E7F23D8907F337E337D33000E7D1509
:10250800826F000E7E15836FFF0E7F15846F8251D8
:1025180083118411D8B406D0E6D78007D8907D37C8
:102528007E377F377EBF03D0020E8061F6D780A149
:102538007E9FD890803380517F138151D8A47F8F9C
:102548007DC07DF07EC07EF07FC07FF01200045019
:10255800D8B405D0015002100310D8A40CD0000E36
:10256800016E000E026E000E036E1200042AD8904F
:10257800033202320132000E0114066E000E0214FC
:10258800076EFE0E0314086E065007100810D8B424
:102598000CD0ECD7042A010E0126000E0222000EF0
:1025A8000322D890033202320132000E0114066E63
:1025B800000E0214076EFF0E0314086E0650071073
:1025C8000810D8B406D0E6D70406D89001360236EB
:1025D800033602BE03D0020E0460F6D704A0029EA2
:1025E800D8900432045003120550D8A4038E01C0B9
:1025F80001F002C002F003C003F01200E00E000177
:102608007E6F7F0E7F6F2AEC19F0070E0001886F2E
:10261800000E896F7F0E8A6F000E97EC18F0020E7D
:10262800D36FC50ED46F7E0ED56F000E51EC13F02C
:10263800000E0101396F000E386F2E0E246F010E47
:102648003815256F266B000E286F200E276F020E97
:1026580021EC0CF0030E0101376F8A0E366F550E10
:10266800E82EFED7362FFCD7372FFAD700D0010136
:10267800384B392B39BFE1D7395104E1100E385D99
:10268800D8A0DBD7070E0001886F000E896F7F0E78
:102698008A6F000E97EC18F012000001D66F000E3A
:1026A8000001D86F000ED76F1ED00001D351D72577
:1026B800D16FD4C0F6FFD5C0F7FFF86A050EF764EE
:1026C80003D00800F55005D0F6CFD9FFF7CFDAFFD1
:1026D800DF500001D26FD65101EC16F00001D44B47
:1026E800D52BD74BD82BD4C0F6FFD5C0F7FFF86A47
:1026F800050EF76403D00800F55005D0F6CFD9FFD2
:10270800F7CFDAFFDF500A0AD8B41200D4C0F6FFB8
:10271800D5C0F7FFF86A050EF76403D00800F55036
:1027280005D0F6CFD9FFF7CFDAFFDF500009D8B4CC
:102738001200BBD7000E0C6F0D0E0B6F0BC18CF087
:10274800310E97EC17F00BC18CF0360E97EC17F0A2
:1027580001010B4B0C2B0CBFF1D70C5104E1730E8C
:102768000B5DD8A0EBD7000E0E6F310E0D6F0D0E5E
:1027780000018C6F01010D5197EC17F0720E0001EA
:102788008C6F01010D5197EC17F001010D4B0E2BC9
:102798000EBFEDD70E5104E1370E0D5DD8A0E7D777
:1027A800020E0001D36F07C1D4F008C1D5F0050EA1
:1027B80051EC13F0150E0001D36F09C1D4F00AC112
:1027C800D5F0050E51EC13F01200186E000E1A6EBB
:1027D800000E196E1BD0155019240C6E16C0F6FF8A
:1027E80017C0F7FFF86A050EF76403D00800F55024
:1027F80005D0F6CFD9FFF7CFDAFFDF500D6E1850AE
:10280800B7EC16F0164A172A194A1A2A16C0F6FF04
:1028180017C0F7FFF86A050EF76403D00800F550F3
:1028280005D0F6CFD9FFF7CFDAFFDF500A0AD8B4C0
:10283800120016C0F6FF17C0F7FFF86A050EF76416
:1028480003D00800F55005D0F6CFD9FFF7CFDAFF4F
:10285800DF500009D8B41200BED77A0E00017E6F8F
:102868007C0E7F6F2AEC19F0070E0001886F000EAE
:10287800896F7F0E8A6F000E97EC18F0070ED36FE2
:10288800AE0ED46F7F0ED56F050E51EC13F0720E9D
:102898000101246F7B0E256F040E266F200E276F13
:1028A800000E296F000E286F000E2B6F040E2A6F82
:1028B8009BEC0BF00B0E0101506F260E4F6F5D0E57
:1028C800E82EFED74F2FFCD7502FFAD700D0070E8F
:1028D8000001886F000E896F7F0E8A6F000E97ECDB
:1028E80018F06BEC1BF012007D517E117F11D8A4FB
:1028F8000DD080C0D9FF81C0DAFFDE6ADD6A000E24
:102908007D6F000E7E6F000E7F6F12007F517F0B70
:10291800826F836BD8908237833780C0D9FF81C09C
:10292800DAFF82C0DEFF83C0DDFF7EAF03D0826B9B
:10293800822B02D00001826B825180C0D9FF81C0F6
:10294800DAFFDE12000EDD1280C0D9FF81C0DAFF87
:10295800820EDE26FF0EDD227F51800B3F097F6F3E
:102968007E9F7DC07DF07EC07EF07FC07FF012002C
:10297800070E0001886F000E896F7F0E8A6F000EA8
:1029880097EC18F0010ED36F930ED46F7E0ED56FAF
:10299800000E51EC13F0000E0101386F2E0E376F48
:1029A80037C124F1000E266F010E256F000E286F27
:1029B800200E276F020E21EC0CF00D0E0101366F70
:1029C800FB0EE82EFED7362FFCD700D00101374B7F
:1029D800382B38BFE5D7385104E1610E375DD8A0F0
:1029E800DFD7070E0001886F000E896F7F0E8A6F90
:1029F800000E97EC18F01200000E216F1FAF06D0E2
:102A08001E6D1F1FD8B01F2B010E216F1DAF06D0E2
:102A18001C6D1D1FD8B01D2B010E211B000E236F2E
:102A2800000E226F1E511F11D8B41CD0010E206F4A
:102A380004D0D8901E371F37202B1FAFFAD7D89055
:102A4800223723371E511C5D1F511D59D8A005D0B0
:102A58001E511C5F1F511D5B2281D8901F331E33EE
:102A6800202FEDD72151D8B404D0226D231FD8B020
:102A7800232B22C11CF123C11DF11200000E3C6E54
:102A88003AAE06D0396C3A1ED8B03A2A010E3C6EDE
:102A980038AE06D0376C381ED8B0382A010E3C1A2A
:102AA800000E3E6E000E3D6E39503A10D8B41CD060
:102AB800010E3B6E04D0D89039363A363B2A3AAEEE
:102AC800FAD7D8903D363E363950375C3A503858A8
:102AD800D8A005D03950375E3A50385A3D80D89042
:102AE8003A3239323B2EEDD73C50D8B404D03D6C45
:102AF8003E1ED8B03E2A3DC037F03EC038F0120026
:102B0800000E246F39C125F13AC126F1000E286F55
:102B1800080E276F060E21EC0CF0770E246F3BC1D0
:102B280025F13CC126F1000E286F080E276F060E0E
:102B380021EC0CF0F40E246F7B0E256F020E266F2D
:102B4800100E276F000E296F000E286F000E2B6FD6
:102B5800030E2A6F9BEC0BF0F40E246F7B0E256F8F
:102B6800020E266F100E276F000E296F010E286FB8
:102B7800000E2B6F020E2A6F9BEC0BF01200000E5A
:102B880000019B6FC00E9C6FC10E9D6F000E8C6F75
:102B9800C80E8D6F420E8E6F000EA76F800EA86F45
:102BA800440EA96FCBC085F0CCC086F0CBEC1BF0EF
:102BB80085C0A4F086C0A5F087C0A6F016EC0FF07B
:102BC800A4C089F0A5C08AF0A6C08BF022EC0EF054
:102BD80089C098F08AC099F08BC09AF000EC05F093
:102BE80098C0BCF099C0BDF09AC0BEF0CDEC10F012
:102BF800BCC0CBF0BDC0CCF012000101006FE00EEC
:102C08000001D225CB6FCC6BFF0ECC23000ECE6F0C
:102C1800050ECD6FA0EC1CF0CBC003F1CCC004F1C5
:102C2800D151050DF3CFD1F0000E0101066F000E52
:102C3800056F5D0E0325F66E710E0421F76E080010
:102C4800F550016F026BD1C082F001C183F00051D1
:102C580065EC18F00001D12B0101034B042B054B47
:102C6800062B06BFE6D7065105E1050E055DD8B06F
:102C78001200DFD71200E30EF66E780EF76E08002A
:102C8800F5CF21F0D8902132D8902132D890213038
:102C9800226EE40EF66E780EF76E0800F5CF23F07C
:102CA800000E256E000E246EE30E0C6E780E0D6E6F
:102CB80022C00EF023C00FF024C010F025C011F080
:102CC800000E136E010E126E27EC0DF0030E216E2E
:102CD800980EE82EFED7212EFCD7244A252A25BE99
:102CE800E3D7255005E1050E245CD8B01200DCD7E7
:102CF80012007FAF0FD0000E836F000E846F800E1E
:102D0800856F7D51835D7D6F7E5184597E6F7F51C4
:102D180085597F6F82AF0FD0000E836F000E846FCE
:102D2800800E856F8051835D806F81518459816FDA
:102D380082518559826F000E7D1B000E7E1B800E0E
:102D48007F1B000E801B000E811B800E821B805192
:102D58007D5D81517E5982517F59D8B002D0D8907B
:102D68001200D8801200106EE00E0D24016E026A67
:102D7800FF0E0222000E046E050E036E01EC1DF01C
:102D880001C011F002C012F00C50050DF3CF0CF089
:102D9800000E146E000E136E5D0E1124F66E710E89
:102DA8001220F76E0800F5500E6E0F6A0CC006F080
:102DB8000EC007F0105017EC1AF00C2A114A122A0C
:102DC800134A142A14BEE8D7145005E1050E135C03
:102DD800D8B01200E1D71200000ED06FCCAF06D0E9
:102DE800CB6DCC1FD8B0CC2B010ED06FCEAF04D09A
:102DF800CD6DCE1FD8B0CE2BCD51CE11D8B418D0B2
:102E0800010ECF6F04D0D890CD37CE37CF2BCEAFB1
:102E1800FAD7CD51CB5DCE51CC59D8A004D0CD51E5
:102E2800CB5FCE51CC5BD890CE33CD33CF2FF1D7FB
:102E3800D051D8B404D0CB6DCC1FD8B0CC2BCBC0DC
:102E4800CBF0CCC0CCF01200000E3C6E38AE06D0F1
:102E5800376C381ED8B0382A010E3C6E3AAE04D012
:102E6800396C3A1ED8B03A2A39503A10D8B418D02A
:102E7800010E3B6E04D0D89039363A363B2A3AAE2A
:102E8800FAD73950375C3A503858D8A004D039505E
:102E9800375E3A50385AD8903A3239323B2EF1D709
:102EA8003C50D8B404D0376C381ED8B0382A37C054
:102EB80037F038C038F01200000E0101276F000EFD
:102EC800266F23D0000E0101296F320E286F26517C
:102ED8000D0F00018C6F0101285197EC17F0060EB9
:102EE8000001D86F300EE82EFED7D82FFCD700008F
:102EF8000101284B292B29BFEAD7295104E1360EB5
:102F0800285DD8A0E4D7264B272B2651245D2551D0
:102F1800800A0001D86F01012751800A0001D859A1
:102F2800D8A01200CFD70001946F94C08DF0000193
:102F3800D8908D33D8908D33D8908D338D51956F2F
:102F4800966B94C08DF0070E8D17010E8E6F000ED4
:102F58008F6F8D2B03D0D8908E378F378D2FFBD75F
:102F68008EC090F08FC091F08CC089F0000195510F
:102F7800C8EC1CF08D6F8D51926F936B8CC082F0F2
:102F880090519211836F955165EC18F01200846F7F
:102F9800400E0001826104D0000E876F010E03D03D
:102FA800000E876F020E866F86C088F08351D8B4F2
:102FB80007D084516AEC1DF000018251ABEC1BF084
:102FC8000001885158EC1CF09568000E936E880536
:102FD800D8B48190020E8819D8B4819281868184F0
:102FE80000008188000083CF85F0819881808182EC
:102FF8000001855112000001996F00019951D8B460
:1030080016D0000E9B6F320E9A6F97510D0F8C6F72
:103018009A5197EC17F000019A4B9B2B9BBFF5D761
:103028009B511BE1360E9A5DD8B01200EED7000E08
:103038009D6F320E9C6F97510D0F8C6F9C5132EC27
:1030480018F000019C4B9D2B9DBFF5D79D5105E1C4
:10305800360E9C5DD8B01200EED71200946F94C063
:103068008DF00001D8908D33D8908D33D8908D3362
:103078008D51956F966B94C08DF0070E8D17010ECC
:103088008E6F000E8F6F8D2B03D0D8908E378F37B1
:103098008D2FFBD700018E1D906F8F1D916F8CC0F7
:1030A80089F09551C8EC1CF08D6F8D51926F936B20
:1030B8008CC082F090519215836F955165EC18F091
:1030C80012000001846F400E0001826104D0000EDE
:1030D800866F010E03D0000E866F020E856F85C0C5
:1030E80087F084516AEC1DF000018251ABEC1BF0B3
:1030F8000001875158EC1CF0000E936E8705D8B478
:103108008190020E8719D8B481928196818400003B
:103118008188000083C083FF000E956E00008198AF
:103128008180818212008E6F8EC08FF00001906BBB
:103138001DD089C091F0926B0AD091C082F0000E28
:10314800836F8F5165EC18F00001914B922B8A51D7
:103158008B6F8C6B91518B5D8C51800A8D6F925166
:10316800800A8D59D8B0E9D78F4B902B88518B6F37
:103178008C6B8F518B5D8C51800A8D6F9051800ABA
:103188008D59D8A01200D5D71A6E1AC011F0D89050
:103198001132D8901132D89011321150186E196A24
:1031A8001AC011F0070E1116010E126E000E136EE2
:1031B800112A03D0D89012361336112EFBD712C01D
:1031C80014F013C015F010C00DF0185026EC1DF0C7
:1031D800116E1150166E176A10C006F014501610B2
:1031E800076E185017EC1AF012001A6E1AC011F078
:1031F800D8901132D8901132D89011321150186EDF
:10320800196A1AC011F0070E1116010E126E000E7F
:10321800136E112A03D0D89012361336112EFBD70D
:10322800121C146E131C156E10C00DF0185026ECED
:103238001DF0116E1150166E176A10C006F014506A
:103248001614076E185017EC1AF0120015D07EC02D
:10325800F6FF7FC0F7FFF86A050EF76403D0080091
:10326800F55005D0F6CFD9FFF7CFDAFFDF50A0EC45
:103278001DF000017E4B7F2B7EC0F6FF7FC0F7FF5D
:10328800F86A050EF76403D00800F55005D0F6CFAC
:10329800D9FFF7CFDAFFDF500009D8A4D8D70D0E31
:1032A800A0EC1DF00A0EA0EC1DF01200086E400EF6
:1032B800066004D0000E0A6E010E03D0000E0A6EDE
:1032C800020E096E09C00CF00750D8B406D0085099
:1032D8007AEC1DF00650E8EC1BF00C5072EC1CF078
:1032E8009568000E936E0C04D8B48190020E0C18E9
:1032F800D8B481928186818400008188000083CFC0
:103308000BF08198818081820B501200140EF66EAA
:10331800390EF76E000EF86E01EE86F010EE2CF006
:103328000900F5CFEEFFE550E150FAE15A0EF66ECE
:103338003B0EF76E000EF86E0900F5CFE1F00900BC
:10334800F5CFE2F001EE57F02F0EEE6AE806FDE148
:1033580000EED9F0080EEE6AE806FDE159905992A0
:10336800000EF86E000188EF1DF0416E4150D8B490
:1033780015D0000E436E320E426E3F500D0F106E88
:103388004250C8EC18F0424A432A43BEF6D743508D
:103398001AE1360E425CD8B01200EFD7000E456E27
:1033A800320E446E3F500D0F106E4450F9EC18F079
:1033B800444A452A45BEF6D7455005E1360E445CD9
:1033C800D8B01200EFD7120014D002C0F6FF03C025
:1033D800F7FFF86A050EF76403D00800F55005D02A
:1033E800F6CFD9FFF7CFDAFFDF50A7EC1DF0024A7E
:1033F800032A02C0F6FF03C0F7FFF86A050EF76458
:1034080003D00800F55005D0F6CFD9FFF7CFDAFF83
:10341800DF500009D8A4D9D70D0EA7EC1DF00A0E6D
:10342800A7EC1DF01200086E400E066004D0000ED6
:103438000A6E010E03D0000E0A6E020E096E09C054
:103448000BF008507AEC1DF00650E8EC1BF00B501E
:1034580072EC1CF0000E936E0B04D8B48190020E2F
:103468000B18D8B48192819681840000818800006D
:1034780007C083FF000E956E0000819881808182CD
:103488001200000E0001826F000E816F7F518011C3
:10349800D8B41CD0010E836F04D0D8907F37803702
:1034A800832B80AFFAD7D890813782377F517D5DE3
:1034B80080517E59D8A005D07F517D5F80517E5BB9
:1034C8008181D89080337F33832FEDD781C07DF001
:1034D80082C07EF012000101196FC282C2B2FED70B
:1034E800C4500101186F176BC35017251A6F000ECF
:1034F80018211B6F460E1919D8A40BD01AC10AF14E
:103508001BC10BF1B2EC08F00AC115F10BC116F1A1
:1035180012001AC1CBF01BC1CCF0C3EC15F0CBC024
:1035280015F1CCC016F11200000E066E000E056EE5
:1035380003500410D8B41CD0010E076E04D0D890E4
:1035480003360436072A04AEFAD7D890053606366D
:103558000350015C04500258D8A005D00350015E06
:103568000450025A0580D89004320332072EEDD752
:1035780005C001F006C002F01200C250830B0C090E
:10358800C26EC282C2B2FED7C4500001806F7F6B88
:10359800C3507F25816F000E8021826F82BF0AD0C1
:1035A800825104E1060E815DD8A004D0000E826F1E
:1035B800040E816FC250830B1809C26E81C07DF062
:1035C80082C07EF01200080E0F01386F000E396FAE
:1035D800000E3A6F000E3B6F3C83080E926E000E91
:1035E800956E000E936E800E946E96909682000EE5
:1035F800836E000E816E8490DBEC1CF095EC1DF060
:10360800EEEC1CF0B4EC1CF0120086518711D8B413
:1036180018D0010E886F04D0D89086378737882B4A
:1036280087AFFAD78651845D87518559D8A004D0D1
:103638008651845F8751855BD89087338633882F7E
:10364800F1D784C084F085C085F012000A500B10B1
:10365800D8B418D0010E0C6E04D0D8900A360B36A8
:103668000C2A0BAEFAD70A50085C0B500958D8A0A0
:1036780004D00A50085E0B50095AD8900B320A320F
:103688000C2EF1D708C008F009C009F01200B65195
:10369800B711B811D8B406D0000EB61B000EB71B70
:1036A800800EB81BB3C098F0B4C099F0B5C09AF0BA
:1036B800B6C09BF0B7C09CF0B8C09DF000EC05F018
:1036C80098C0B3F099C0B4F09AC0B5F012008E0E4D
:1036D80000017E6F7F0E7F6F2AEC19F0000E01014A
:1036E800B16F320EB06F000EAD6F320EAC6F000EC0
:1036F8000001DE6F000EDD6F000E0101AF6F320EAC
:10370800AE6F000E5D6FFDEC11F0968012007DC06B
:10371800D9FF7EC0DAFFDF507F150009D8B415D075
:103728001A0E0001816FF80EE82EFED7812FFCD704
:1037380000007DC0D9FF7EC0DAFFDF5000017F1591
:103748000009D8B402D0010E1200000E1200816FD9
:10375800400E000181610DD0010E7F6F815140093B
:1037680005EC1CF0020E00017F6F400E05EC1CF00A
:103778001200010E7F6F7F0E05EC1CF0020E000197
:103788007F6F8151C00F400905EC1CF01200000E3C
:103798000001886F86AF06D0856D861FD8B0862B4E
:1037A800010E886F85C07DF086C07EF07F6B8E0E1F
:1037B800806F88C081F054EC12F07DC085F07EC027
:1037C80086F07FC087F01200056E400E05600CD0B1
:1037D800010E036E055040093DEC1CF0020E036E0D
:1037E800400E3DEC1CF01200010E036E7F0E3DEC06
:1037F8001CF0020E036E0550C00F40093DEC1CF092
:103808001200806F00017F5158EC1CF0000E936E7F
:103818007F05D8B48190020E7F19D8B48192819621
:10382800819400008188000080C083FF000E956E9F
:1038380000008198818081821200000E0C6E0AAE11
:1038480006D0096C0A1ED8B00A2A010E0C6E09C0EF
:1038580001F00AC002F0036A8E0E046E0CC005F077
:10386800ABEC12F001C009F002C00AF003C00BF083
:103878001200046E035072EC1CF0000E936E0304E9
:10388800D8B48190020E0318D8B48192819681949D
:1038980000008188000004C083FF000E956E0000C0
:1038A80081988180818212007E6F9568000E936EE8
:1038B80000017E05D8B48190020E7E19D8B4819299
:1038C8008186819400008188000083CF7DF08198F3
:1038D80000017DBFF8D7818081821200026E956851
:1038E800000E936E0204D8B48190020E0218D8B468
:1038F80081928186819400008188000083CF01F045
:10390800819801BEF9D78180818212006E007A7C8D
:10391800EE7FEA7FFA7FFB7FF67FF27FDC7E097F0E
:103928001F7F1F7FC57E9E7F937EAC7EF37ECC7FFC
:10393800BD7F3200320032000001CB51CD03F3CFFE
:10394800CFF0F4CFD0F0CB51CE03F350D027CC51E9
:10395800CD03F350D027CFC0CBF0D0C0CCF01200AD
:10396800D09EF28ED59ED59CD59AD596D550F80B7B
:103978000109D56EF294F28A380ED66E500ED76EC3
:103988009E9A9D8A9F8A12008B6F89C082F0010ED1
:103998000001836F8B51CBEC17F089C082F0010EC8
:1039A800836F8B51CBEC17F08A6F8A5112005D99A7
:1039B8005D8B5D51F00B0C095D6F3F0E49173E0E94
:1039C8005E6FF90EBB6E9E92BA50FC0B0209BA6E7E
:1039D800BA841200C250830B1809C26EF30EC116C6
:1039E800FC0EC116C08EC050C70B2009C06EC05057
:1039F800F80B0109C06EC280120001500302F3CF18
:103A080005F0F4CF06F001500402F35006260250E8
:103A18000302F350062605C001F006C002F01200AA
:103A2800B951BA11BB11D8B406D0000EB91B000E9B
:103A3800BA1B800EBB1BB9C0B9F0BAC0BAF0BBC084
:103A4800BBF012000F6E0DC006F0010E076E0F508E
:103A58005AEC19F00DC006F0010E076E0F505AEC23
:103A680019F00E6E0E501200818A010E00017F6F50
:103A78003F0E05EC1CF0020E00017F6F3F0E05ECB7
:103A88001CF0000E49EC1DF012000001816F010EC0
:103A980000017F6F8151C00905EC1CF0020E000186
:103AA8007F6F8151C00905EC1CF0120038EC1DF045
:103AB800070E0001886F000E896F7F0E8A6F000E57
:103AC80097EC18F0000E49EC1DF01200816F010E02
:103AD80000017F6F8151B80905EC1CF0020E00014E
:103AE8007F6F8151B80905EC1CF01200056E010EBC
:103AF800036E0550B8093DEC1CF0020E036E05502C
:103B0800B8093DEC1CF01200E7EC1AF05AEC1DF075
:103B1800A0EC11F0A9EC06F06BEC1BF043EC00F004
:103B2800FDD7AC9CAC8AAC989D98AC84B886100E36
:103B3800AF6EAB8EAB88120000017D6FACA2FED7D2
:103B48007DC0ADFF1200016EACA2FED701C0ADFF73
:043B58001200467F92
:106D5C000000000080E0F0F8FC7E3E3E1E1E1E3E51
:106D6C007EFEFCF8F0600000000000000000000057
:106D7C000000000000000000000000000000000007
:106D8C0000000000000000F0F8FC0C0CECEE6E6E45
:106D9C006E0EEEEE0EEEEE6E6EEECE0E0E0E0E0EC7
:106DAC000E0E0E0E0E0E0E0E0E0E0E0E0E0E0E0EF7
:106DBC000E0E0E0E0E0E0E0E8ECE4E4E4E4E4E4E27
:106DCC004E4ECE8C0C0CFCF8F000000000000000C5
:106DDC00000000007FFFFFFFFF80000000000000AC
:106DEC0080E0E0E0E0C000000000000000000000D7
:106DFC000000000000000000000000000000000087
:106E0C0000000000000000FFFFFF00007F7F06066F
:106E1C0000007F7F007F7F66667F39007E7F1111C7
:106E2C000E001F1F0201010E171515120002171577
:106E3C0015080217151508001F3F20292B292A2990
:106E4C002B203F1F0000FFFFFF0000000000000090
:106E5C0000000000000107070F1F1F1F1E1E1E1F32
:106E6C001F0F0F677370303030F0F0F0E00000004F
:106E7C000080808080800000000000000000000086
:106E8C000000000000000000010303030307FFFFE4
:106E9C00FF0707878787878787070707070707077E
:106EAC00070707C77F6F6F6F6F6F6F6F7FC707071E
:106EBC000707070707070707C73F0707070707FF66
:106ECC00FFFF0703030303010000000000000000A4
:106EDC0000000000000000000000000000000000A6
:106EEC000000001C3E736363233F7F7F7F401818B4
:106EFC00FFFFFF1919010000002060E0C0800000B6
:106F0C000000000000000000000000000000FFFF77
:106F1C00FF00000A0A0A0A0A0A000000000000002A
:106F2C000000060F0F1F3B7B3B7B3B1F0F0F060028
:106F3C0000000000000000000718E000000000FF47
:106F4C00FFFF000000000000000000000000000037
:106F5C000000000000000000000000000000000025
:106F6C000000000000000000000000000000000015
:106F7C003F3F3F000000C0F0F0FCCCCCCCCCFCF888
:106F8C007000000000000000000000000000FFFF87
:106F9C00FF00005050505050500000000000000006
:106FAC0000FEF1F1F1F1F1F1F1F1F1F1F1F1F17E1C
:106FBC00242418000000000000070707000000FF51
:106FCC00FFFF0000000000000000000000000000B7
:106FDC0000000000000000000000000000000000A5
:106FEC000000000000000000000000000000000095
:106FFC0000000000000001070F1F1C18181C0E06D3
:10700C0002000000000000008080C0E0E0707F7F84
:10701C007F7070717171717171707070707070704F
:10702C0070707377777F7F7F7F7F7F7F77777370C9
:10703C007070707070707070707070707070707F35
:10704C00FFFFE0C0C08080000000000000000000D6
:10705C0000000000FCFCC040C080000000C0C0006C
:10706C0000C0C00000000000000000F0F80C040C90
:10707C00383000000004FCFC04000000000000009C
:10708C000000000000FEFEFF07E7F7FF3F3FFFF7A1
:10709C00E7070707E7F7FF3F3FFFF7E7070707E7B4
:1070AC001717179797979797979797171717D717A4
:1070BC00E7070707E7F7FF3F3FFFF7E7070707E794
:1070CC00F7FF3F3FFFF7E707FEFEFE000000000062
:1070DC00000000001F1F18101F0F00000020331F9E
:1070EC000F03000000000000000000070F1810182C
:1070FC000E06000000101F1F100000000000000012
:10710C0000000000003F3F3F38393B3F3F3F3F3BD3
:10711C0039383838393B3F3F3F3F3B393838383BBB
:10712C003A3A3A3A3A3A3A3A3A3A3A3A3A3A3A3AB3
:10713C003B383838393B3F3F3F3F3B39383838399B
:10714C003B3F3F3F3F3B39383F3F3F000000000093
:10715C0000000000000000005F00000007000700B6
:10716C00147F147F14242A7F2A1223130864623696
:10717C00495522500005030000001C22410000412B
:10718C00221C00082A1C2A0808083E080800503057
:10719C00000008080808080030300000201008041F
:1071AC00023E5149453E00427F40004261514946F2
:1071BC002141454B311814127F1027454545393C68
:1071CC004A4949300171090503364949493606498E
:1071DC0049291E00363600000056360000000814FF
:1071EC0022411414141414412214080002015109F0
:1071FC0006324979413E7E1111117E7F494949364B
:10720C003E414141227F4141221C7F494949417FF6
:10721C00090901013E414151327F0808087F0041B4
:10722C007F41002040413F017F081422417F4040B4
:10723C0040407F0204027F7F0408107F3E414141A1
:10724C003E7F090909063E4151215E7F09192946F5
:10725C00464949493101017F01013F4040403F1FF0
:10726C002040201F7F2018207F6314081463030420
:10727C00780403615149454300007F4141020408F1
:10728C00102041417F0000040201020440404040B4
:10729C0040000102040020545454787F4844443880
:1072AC003844444420384444487F385454541808D3
:1072BC007E090102081454543C7F080404780044ED
:1072CC007D40002040443D00007F10284400417F59
:1072DC0040007C041804787C080404783844444446
:1072EC00387C14141408081414187C7C0804040842
:1072FC004854545420043F4440203C4040207C1CC3
:10730C002040201C3C4030403C44281028440C5069
:10731C0050503C4464544C44000836410000007FFB
:10732C000000004136080008082A1C08081C2A081E
:10733C00080801AA010800383838000000000000D5
:10734C00000000000001000A006400E803102700A0
:10735C00A0402CC23B000080C0C0C0C0C0C5DAC079
:10736C00C0C0C5DAC0C0C0C5DAC0C0C0C0C0C0C0D3
:10737C0080000000000000FFFFFFFFFFFFFFFFFF8A
:10738C00FFFFFFFFFFFFFFFFFFFFFFFFFFFFFFFF01
:10739C00FF0707FFFF0000FFFFFFFFFFFFFFFFFFDF
:1073AC00FFFFFFFFFFFFFFFFFFFFFFFFFFFFFFFFE1
:1073BC00FFE0E0FFFF00007FFFFFFFFFFFFFFFFF8D
:1073CC00FFFFFFFFFFFFFFFFFFFFFFFFFFFFFFFFC1
:1073DC007F00000000000080C0C0C0C0C0DAC5C083
:1073EC00C0C0DAC5C0C0C0DAC5C0C0C0C0C0C0C053
:1073FC0080000000000000FFFFFFFFFFFFFFFFFF0A
:10740C00FFFFFFFFFFFFFFFFFFFFFFFFFFFFFFFF80
:10741C00FF0707FFFF0000FFFFFFFFFFFFFFFFFF5E
:10742C00FFFFFFFFFFFFFFFFFFFFFFFFFFFFFFFF60
:10743C00FFE0E0FFFF00007FFFFFFFFFFFFFFFFF0C
:10744C00FFFFFFFFFFFFFFFFFFFFFFFFFFFFFFFF40
:10745C007F00000000000080C0C0C0C0C0DAC5C002
:10746C00C0C0DAC5C0C0C0DAC5C0C0C0C0C0C0C0D2
:10747C0080000000000000FF000000000000000081
:10748C0000000000000000000000000000000000F0
:10749C00FF0707FFFF0000FF0000000000000000D6
:1074AC0000000000000000000000000000000000D0
:1074BC00FFE0E0FFFF00007FC0C0C0C0C0C0C0C084
:1074CC00C0C0C0C0C0C0C0C0C0C0C0C0C0C0C0C0B0
:1074DC007F00000000000080C0C0C0C0C0DAC5C082
:1074EC00C0C0DAC5C0C0C0DAC5C0C0C0C0C0C0C052
:1074FC0080000000000000FF000000000000000001
:10750C00000000000000000000000000000000006F
:10751C00FF0707FFFF0000FF000000000000000055
:10752C00000000000000000000000000000000004F
:10753C00FFE0E0FFFF00007FFFFFFFFFFFFFFFFF0B
:10754C00FFFFFFFFFFFFFFFFFFFFFFFFFFFFFFFF3F
:10755C007F00000000000080C0C0C0C0C0DAC5C001
:10756C00C0C0DAC5C0C0C0DAC5C0C0C0C0C0C0C0D1
:10757C0080000000000000FF000000000000000080
:10758C0000000000000000000000000000000000EF
:10759C00FF0707FFFF0000FFF0F0F0F0F0F0F0F055
:1075AC00F0F0F0F0F0F0F0F0F0F0F0F0F0F0F0F0CF
:1075BC00FFE0E0FFFF00007FFFFFFFFFFFFFFFFF8B
:1075CC00FFFFFFFFFFFFFFFFFFFFFFFFFFFFFFFFBF
:1075DC007F00000000000080C0C0C0C0C0DAC5C081
:1075EC00C0C0DAC5C0C0C0DAC5C0C0C0C0C0C0C051
:1075FC0080000000000000FF000000000000000000
:10760C00000000000000000000000000000000006E
:10761C00FF0707FFFF0000FFFFFFFFFFFFFFFFFF5C
:10762C00FFFFFFFFFFFFFFFFFFFFFFFFFFFFFFFF5E
:10763C00FFE0E0FFFF00007FFFFFFFFFFFFFFFFF0A
:10764C00FFFFFFFFFFFFFFFFFFFFFFFFFFFFFFFF3E
:10765C007F00000000000080C0C0C0C0C0DAC5C000
:10766C00C0C0DAC5C0C0C0DAC5C0C0C0C0C0C0C0D0
:10767C0080000000000000FFF0F0F0F0F0F0F0F0FF
:10768C00F0F0F0F0F0F0F0F0F0F0F0F0F0F0F0F0EE
:10769C00FF0707FFFF0000FFFFFFFFFFFFFFFFFFDC
:1076AC00FFFFFFFFFFFFFFFFFFFFFFFFFFFFFFFFDE
:1076BC00FFE0E0FFFF00007FFFFFFFFFFFFFFFFF8A
:1076CC00FFFFFFFFFFFFFFFFFFFFFFFFFFFFFFFFBE
:1076DC007F00000000000080C0C0C0C0C0DAC5C080
:1076EC00C0C0DAC5C0C0C0DAC5C0C0C0C0C0C0C050
:1076FC0080000000000000FFFFFFFFFFFFFFFFFF07
:10770C00FFFFFFFFFFFFFFFFFFFFFFFFFFFFFFFF7D
:10771C00FF0707FFFF0000FFFFFFFFFFFFFFFFFF5B
:10772C00FFFFFFFFFFFFFFFFFFFFFFFFFFFFFFFF5D
:10773C00FFE0E0FFFF00007FFFFFFFFFFFFFFFFF09
:10774C00FFFFFFFFFFFFFFFFFFFFFFFFFFFFFFFF3D
:10775C007F000000001820FFFFFFFFFFFFFFFF0F5F
:10776C00F7FBFBFBFBFBF707FFFFFFFFFFFFFFFF39
:10777C00FFFFFFFFFFFFFF00FFFF3F3F3F3FFF000B
:10778C00FFFFFFFFFFFFFFFFFFFFFFFFFF7F7F807C
:10779C00FF7F00000000FF803F7FFFFFFFFFFFFF28
:1077AC00FFFFFFFFF9F0E7E9D0D0D0D0D0D0D0E880
:1077BC00EFF2F8FFFFFFFFFFFFFFFFFFFFFFFF0FE1
:1077CC00F7FBFBFBFBFBF707FFFFFFFFFFFFFFFFD9
:1077DC00FFFFFFFFFFFFFF00FFFFFFFFFFFFFF00AB
:1077EC00FFFFFFFFFFFFFFFFFFFFFFFFFF7F7F801C
:1077FC00FF7F1F1F1F1FFF803F7FFFFFFFFFFFFF4C
:10780C00FFFFFFFFF9F0E7E9D0D0D0D0D0D0D0E81F
:10781C00EFF2F8FFFFFFFFFFFFFFFFFFFFFFFF0F80
:10782C00F7FBFBFBFBFBF707FFFFFFFFFFFFFFFF78
:10783C00FFFFFFFFFFFFFF00FF5301010101FF00EE
:10784C00FFFFFFFFFFFFFFFFFFFFFFFFFF7F7F80BB
:10785C00FF7400000000FF803F7FFFFFFFFFFFFF72
:10786C00FFFFFFFFF9F0E7E9D0D0D0D0D0D0D0E8BF
:10787C00EFF2F8FFFFFFFFFFFFFFFFFFFFFFFF0F20
:10788C00F79B0B0B0B1BF707FFFFFFFFFFFFFFFF28
:10789C00FFFFFFFFFFFFFF00FFFF00000000FF00E6
:1078AC00FFFFFFFFFFFFFFFFFFFFFFFFFF7F7F805B
:1078BC00FF7400000000FF803F7FFFFFFFFFFFFF12
:1078CC00FFFFFFFFF9F0E7E9D0D0D0D0D0D0D0E85F
:1078DC00EFF2F8FFFFFFFF1818FFFFFFFFFFDF8F2E
:1078EC00070303030303071FFF7F3F1F3F7FFFFFB8
:1078FC00FFFFFF07030301010183C20000000043E7
:10790C00C1808080C0C0E0FFFFFFFFFFFEFCF8FCE1
:10791C00FEFFF8E0C0C0C0C0C0E0F1FBFFFFFFFFFE
:10792C00FFFFFFFFFFFFFFFFEFC78303030303030B
:10793C0007FFFFFFFFFFFFFFFFFFFF0100000080BD
:10794C00C06001030000800806030100000083FFF3
:10795C00FFFFFFFFFEFEFFFFE1C08080808081C340
:10796C00C6FEFEFEFEFFFFFFFFFFFF7F3F1F1F1F38
:10797C001F3F7FE3830303030303079FFFFFFFFF07
:10798C00FFFFFFE0C0E0E0301018000001800000B5
:10799C0008040603030303FFFFFFFFFFFFFFF8F0DC
:1079AC00E0E0C0C0C0C1E7FEFCFCFCFCFCFEFFFF3D
:1079BC00FFFFFFFF7F1F0F0F0F0F0F1F3FFF8703EF
:1079CC000307070F0F1FFFFFFFFFFFFFFDF87818DE
:1079DC00180808080080000100101010181C1E1F49
:1079EC00BFFFFFFFFFFFFFF8F0F0E0E0C0C0E3FFD8
:1079FC00FCF8F0F0F0F0F0F8FEFFFFFFFFFFFF3FA8
:107A0C001F0F07070707070F1FFF7F0F0F0F0F1F12
:107A1C003FFFFFFFFFFF3F0F0E06060404848000AC
:107A2C000003206060606070F8FFFFFFFFFFFEFC4A
:107A3C00F8F0F0F0F0FFFFF8E0E0C0C0E0E0F0F8A4
:107A4C00FFFFFFFF1818FFFFFFFFFFFFFF7FBFCFF8
:107A5C00E7F3F7CF9F3FFFFFFFFFFFFFFFFFFFFFA6
:107A6C00FF1FC7F1FCFEFFFFFFFFFFFFFFFEFCF156
:107A7C00E30FFFFFFFFFFFFFFFFEF8F3E3E7E7C7AE
:107A8C00C7C7C7C7C7E7E3F3F8FCFFFFFFFFFFFF5C
:107A9C00FFFFFFFFFF7FBFCFE7F3F7CF9F3FFFFF56
:107AAC00FFFFFFFFFFFFFFFFFF1F07111C1E1F1F24
:107ABC001F1F1F1F1F1E1C11030FFFFFFFFFFFFFC8
:107ACC00FFFEF8F0E0E0E0C0C0C0C0C0C0E0E0F0F5
:107ADC00F8FCFFFFFFFFFFFFFFFFFFFFFF7F3FCF24
:107AEC00E7F3F7CF1F3FFFFFFFFFFFFFFFFFFFFF96
:107AFC00FF1F070100000000000000000000000153
:107B0C00030FFFFFFFFFFFFFFFFEF8F0E0E0E0C018
:107B1C00C0C0C0C0C0E0E0F0F8FCFFFFFFFFFFFFFB
:107B2C00FFFFFFFFFF7F3F0F0703070F1F3FFFFF05
:107B3C00FFFFFFFFFFFFFFFFFF1F0701000000001B
:107B4C000000000000000001030FFFFFFFFFFFFF1C
:107B5C00FFFEF8F0E0E0E0C0C0C0C0C0C0E0E0F064
:107B6C00F8FCFFFFFFFF2020FFFFFFFFFFFFFFFFE1
:107B7C00FFFFFF7F1F0F83E3C3070F3FFFFFFFFFD5
:107B8C00FFFFFFFFFFFFFFFFFFFFFFFFFFFFFF3FB9
:107B9C001F07C1E0F8FEC70303FFFCF8E083071FD3
:107BAC007FFFFFFFFFFFFFFFFFFF7F1F0F83E0F053
:107BBC00FCFFFFFFFFFF3F2020FFFFFFFFFFFEFC4E
:107BCC00F0C1030F3FFFFFFFFFF1E0E0E2E3E3E36F
:107BDC00E3E3E3E3E3E3E3E2E3E3E3E3E3E3E3E36A
:107BEC00E3E3E3E0E0E0F1FF1010FFFFFF0303032A
:107BFC00070F0F1F1F3F3FFFFFFFFFFFFFE0F0F0DE
:107C0C00F8F8FCFCFEFFFFFFFFFFFFFFFF3F3F1FED
:107C1C001F0F0F07030303FFFFFFFFFFFFFFFFFE15
:107C2C00FCFCF8F8F0F0E0FFFFFF7E8199BDBD99F8
:107C3C00817E7EFFE7C3C3E7FF7E7E819999999988
:107C4C00817E7EFFE7E7E7E7FF7E00000000803FD4
:107C5C00F0FFBEE2A93E8376BEAE2B3E3CC3BDD246
:107C6C00133D78D3BBE092459A8843207D45436110
:107C7C0066656C6F6964206973206F7574206F661C
:107C8C00207761746572202D20526563686172677C
:107C9C00696E6720697320726571756972656421FC
:107CAC00200055736572206861732064656372658A
:107CBC006D656E74656420636F6666656520696EBC
:107CCC006A656374696F6E2074696D6500557365C0
:107CDC00722068617320696E6372656D656E746580
:107CEC006420636F6666656520696E6A6563746996
:107CFC006F6E2074696D65005573657220686173D1
:107D0C002064656372656D656E746564207761745B
:107D1C00657220696E6A656374696F6E2074696D33
:107D2C006500557365722068617320696E637265B6
:107D3C006D656E74656420776174657220696E6A16
:107D4C00656374696F6E2074696D65005573657237
:107D5C00206861732064656372656D656E7465641B
:107D6C0020636F666665652074656D7065726174FD
:107D7C0075726500557365722068617320696E6356
:107D8C0072656D656E74656420636F6666656520EB
:107D9C0074656D706572617475726500496E746599
:107DAC0072666163653A20576174657220696E6A08
:107DBC00656374696F6E2074696D6500496E7465D6
:107DCC0072666163653A20436F6666656520636F12
:107DDC006E63656E74726174696F6E00496E746562
:107DEC0072666163653A20436F66666565207465EB
:107DFC006D706572617475726500436F666665655A
:107E0C0020696E6A656374696F6E2074696D652094
:107E1C002D3E202564252500576174657220696EFE
:107E2C006A656374696F6E2074696D65202D3E20E0
:107E3C0025642525005374617274696E6720636F25
:107E4C0066666565207072657061726174696F6ECB
:107E5C0000436F666665652074656D70657261744C
:107E6C00757265202D3E202564252500557365729D
:107E7C002063757272656E742073656C65636369DB
:107E8C006F6E2069733A0020507265706172696E72
:107E9C006720796F757220636F66666565210A00CD
:107EAC0041646A75737420746865207761746572B7
:107EBC0020616D6F756E740A00596F757220636F57
:107ECC0066666565206973207265616479210A00B4
:107EDC00436F66666565206D696C6C207370696EA6
:107EEC002074696D650A00576174657220696E6A49
:107EFC00656374696F6E2074696D650A00436F6603
:107F0C0066656520636F6E63656E74726174696F0C
:107F1C006E0A00436F666665652074656D706572E8
:107F2C0061747572650A0050726573656E74696E62
:107F3C00673A2053706C617368004572726F7220DF
:107F4C0072656164696E67206461746100496E6A70
:107F5C00656374696E6720636F66666565210050A2
:107F6C00726573656E74696E673A20496E74726FD0
:107F7C0000496E6A656374696E6720776174657217
:107F8C002100496E697469616C697A696E672E2E7D
:107F9C002E0052656D61696E696E672074696D653E
:107FAC000A004F7574206F6620776174657221200A
:107FBC0000202D20436166656C6F6964202D0A00DA
:107FCC004C372050726F6A656374652000256425F8
:107FDC0064200A00446F6E65003130307300353018
:107FEC004300373043003130730032307300313589
:037FFC007300000F
:020000040030CA
:0E000000FF021900FFA180FF0FC00FE00F40AC
:00000001FF
